{
  "contractName": "DataValidatorSC",
  "abi": [
    {
      "constant": false,
      "inputs": [
        {
          "name": "id_transaction",
          "type": "string"
        },
        {
          "name": "_data_hash",
          "type": "string"
        }
      ],
      "name": "saveTransaction",
      "outputs": [],
      "payable": false,
      "stateMutability": "nonpayable",
      "type": "function"
    },
    {
      "constant": true,
      "inputs": [
        {
          "name": "id_transaction",
          "type": "string"
        },
        {
          "name": "_data_hash",
          "type": "string"
        }
      ],
      "name": "validateHash",
      "outputs": [
        {
          "name": "",
          "type": "string"
        }
      ],
      "payable": false,
      "stateMutability": "view",
      "type": "function"
    }
  ],
  "bytecode": "0x608060405234801561001057600080fd5b5061086b806100206000396000f3fe608060405234801561001057600080fd5b50600436106100365760003560e01c8063e20b1ddc1461003b578063ffb465c51461018d575b600080fd5b61018b6004803603604081101561005157600080fd5b810190808035906020019064010000000081111561006e57600080fd5b82018360208201111561008057600080fd5b803590602001918460018302840111640100000000831117156100a257600080fd5b91908080601f016020809104026020016040519081016040528093929190818152602001838380828437600081840152601f19601f8201169050808301925050505050505091929192908035906020019064010000000081111561010557600080fd5b82018360208201111561011757600080fd5b8035906020019184600183028401116401000000008311171561013957600080fd5b91908080601f016020809104026020016040519081016040528093929190818152602001838380828437600081840152601f19601f820116905080830192505050505050509192919290505050610358565b005b6102dd600480360360408110156101a357600080fd5b81019080803590602001906401000000008111156101c057600080fd5b8201836020820111156101d257600080fd5b803590602001918460018302840111640100000000831117156101f457600080fd5b91908080601f016020809104026020016040519081016040528093929190818152602001838380828437600081840152601f19601f8201169050808301925050505050505091929192908035906020019064010000000081111561025757600080fd5b82018360208201111561026957600080fd5b8035906020019184600183028401116401000000008311171561028b57600080fd5b91908080601f016020809104026020016040519081016040528093929190818152602001838380828437600081840152601f19601f820116905080830192505050505050509192919290505050610493565b6040518080602001828103825283818151815260200191508051906020019080838360005b8381101561031d578082015181840152602081019050610302565b50505050905090810190601f16801561034a5780820380516001836020036101000a031916815260200191505b509250505060405180910390f35b806000836040518082805190602001908083835b6020831061038f578051825260208201915060208101905060208303925061036c565b6001836020036101000a038019825116818451168082178552505050505050905001915050908152602001604051809103902060000190805190602001906103d892919061079a565b506040518060400160405280600481526020017f74727565000000000000000000000000000000000000000000000000000000008152506000836040518082805190602001908083835b602083106104455780518252602082019150602081019050602083039250610422565b6001836020036101000a0380198251168184511680821785525050505050509050019150509081526020016040518091039020600101908051906020019061048e92919061079a565b505050565b60606002826040516020018082805190602001908083835b602083106104ce57805182526020820191506020810190506020830392506104ab565b6001836020036101000a0380198251168184511680821785525050505050509050019150506040516020818303038152906040526040518082805190602001908083835b602083106105355780518252602082019150602081019050602083039250610512565b6001836020036101000a038019825116818451168082178552505050505050905001915050602060405180830381855afa158015610577573d6000803e3d6000fd5b5050506040513d602081101561058c57600080fd5b810190808051906020019092919050505060026000856040518082805190602001908083835b602083106105d557805182526020820191506020810190506020830392506105b2565b6001836020036101000a038019825116818451168082178552505050505050905001915050908152602001604051809103902060000160405160200180828054600181600116156101000203166002900480156106695780601f10610647576101008083540402835291820191610669565b820191906000526020600020905b815481529060010190602001808311610655575b50509150506040516020818303038152906040526040518082805190602001908083835b602083106106b0578051825260208201915060208101905060208303925061068d565b6001836020036101000a038019825116818451168082178552505050505050905001915050602060405180830381855afa1580156106f2573d6000803e3d6000fd5b5050506040513d602081101561070757600080fd5b8101908080519060200190929190505050141561075b576040518060400160405280600481526020017f476f6f64000000000000000000000000000000000000000000000000000000008152509050610794565b6040518060400160405280600581526020017f4572726f7200000000000000000000000000000000000000000000000000000081525090505b92915050565b828054600181600116156101000203166002900490600052602060002090601f016020900481019282601f106107db57805160ff1916838001178555610809565b82800160010185558215610809579182015b828111156108085782518255916020019190600101906107ed565b5b509050610816919061081a565b5090565b61083c91905b80821115610838576000816000905550600101610820565b5090565b9056fea165627a7a72305820d419da6e1d9c1829ea9b1d43ec8c4cf4b94e37d4f9da611b7c5ca328a93acd430029",
  "source": "pragma solidity >=0.4.21 <0.6.0;\n\nimport \"../node_modules/openzeppelin-solidity/contracts/token/ERC20/ERC20.sol\";\nimport \"../node_modules/openzeppelin-solidity/contracts/token/ERC20/ERC20Detailed.sol\";\n\n\ncontract DataValidatorSC {\n\n    struct transaction_rubbish { //struct\n        string data_hash;\n        string exist;\n    }\n\n    mapping(string => transaction_rubbish) rubbish;\n\n    function saveTransaction (string memory id_transaction, string memory _data_hash) public {\n        rubbish[id_transaction].data_hash = _data_hash;\n        rubbish[id_transaction].exist = \"true\";\n    }\n\n    function validateHash (string memory id_transaction, string memory _data_hash) public view returns (string memory ){\n        if (sha256(abi.encodePacked(rubbish[id_transaction].data_hash)) == sha256(abi.encodePacked(_data_hash))) return(\"Good\");\n        else return(\"Error\");\n    }\n}",
  "sourcePath": "/home/pau.perea/Desktop/Hackathon/DataValidator/contracts/DataValidatorSC.sol",
  "compiler": {
    "name": "solc",
    "version": "0.5.8+commit.23d335f2.Emscripten.clang"
  },
  "schemaVersion": "3.0.11",
  "updatedAt": "2019-12-01T04:59:32.531Z",
  "devdoc": {
    "methods": {}
  },
  "userdoc": {
    "methods": {}
  }
}